:10000E001203981204018F2EE52EB4010CE52D700B
:10001E00047F0180027F008F2DE52EB40207E4F5E8
:10002E002BF52AF52CE52E64037033E52BFD7C00B1
:10003E00E4FF12031A7F057E001203AFE52AFD7C52
:10004E00007F0112031A7F057E001203AFE52CFD1F
:10005E007C007F0212031A7F057E001203AFE52E8D
:10006E00B40415E4FF1202998F2B7F011202998FAF
:10007E002A7F021202998F2CE52B75F00A84FD7FE0
:10008E0001120003E52B75F00A84ADF07F02120019
:10009E00037D117F03120003E52A75F00A84FD7FAC
:1000AE0004120003E52A75F00A84ADF07F051200F4
:1000BE00037D117F06120003E52C75F00A84FD7F87
:1000CE0007120003E52C75F00A84ADF07F081200CC
:0400DE000302001108
:1002F200E52D6023052CE52CC39464401AE4F52C0B
:10030200052AE52A943C4005E4F52A052BE52BC392
:08031200943C4003E4F52B22AA
:03000B000200E20E
:1000E200C0E0C0F0C083C082C0D075D000C000C0E4
:0D00F20001C002C003C004C005C006C00765
:1000FF00758A66758CFC0525E52570020524C39469
:10010F0014E524940040097524007525001202603F
:10011F000527E52770020526C39402E526940040C3
:10012F000975260075270012037F0529E52970023E
:10013F000528C3940AE528940040097528007529FD
:04014F00001202F2A6
:10015300D007D006D005D004D003D002D001D00000
:0B016300D0D0D082D083D0F0D0E032AA
:1003AF00EF1FAC0670011E4C600B007D027CC7DC9A
:0503BF00FEDDFC80EBF7
:0103C4002216
:05040100E4AF31F5310C
:0104060022D3
:1003C500E4FF20B1010F20B0027F0220B2027F03BB
:0503D50020B3027F04CB
:0103DA002200
:10026000852F301203C58F2FE530B40107E52F70BD
:1002700003753101E530B40207E52F7003753102D3
:10028000E530B40307E52F7003753103E530B4049E
:0802900007E52F70037531042E
:010298002243
:10033E0012123F065B4F666D7D077F6F777C395ECD
:10034E0079710040090900101010101010101001E2
:02035E00080194
:0700030074092FF8A6052285
:1001FA00E4F580EF14B40800505490021275F0032D
:10020A00A4C58325F0C5837302022A02022E0202C4
:10021A003202023602023A02024202024A02025240
:10022A00D2A4800ED2A48012D2A48016D2A4801A9C
:10023A00C2A4D2A3D2A28016C2A4D2A3C2A2800E02
:10024A00C2A4C2A3D2A28006C2A4C2A3C2A274122A
:06025A002DF8E6F58022FC
:10037F0074092508F8E6FDAF081201FA0508E5082B
:08038F00C39409400375080145
:010397002243
:100398005389F0438901C28DD28C758A66758CFCAD
:0703A800D2A9D2AFC2B922B5
:10031A008F328C338D341203F17FA01202C912037B
:10032A00DBAF321202C91203DBAF341202C9120365
:04033A00DB0203FAE5
:020299008F32A2
:10029B001203F17FA01202C91203DBAF321202C9A3
:1002AB001203DB1203F17FA11202C91203DB12034B
:0D02BB00618F337F011203E71203FAAF33A6
:0102C8002213
:0903F100D2A0D2A1C2A0C2A12237
:0703FA00C2A0D2A1D2A02293
:0202C900AD077F
:1002CB00E4FB74807E00A803088006CEA2E713CE61
:1002DB0013D8F8FFEDF582EF558224FF92A0D2A13F
:0602EB00C2A10BBB08DC00
:0102F10022EA
:10036100E4FFD2A0FED2A130A00D7480A8060880BF
:0D03710002C313D8FC4207C2A10EBE08E86B
:01037E00225C
:0A03E700EF24FF92A0D2A1C2A122D0
:0B03DB00D2A0D2A1A2A0E433FFC2A177
:0103E60022F4
:0300000002016E8C
:0C016E00787FE4F6D8FD7581340201B5FD
:10017A0002000EE493A3F8E493A34003F68001F28D
:10018A0008DFF48029E493A3F85407240CC8C33386
:10019A00C4540F4420C8834004F456800146F6DF55
:1001AA00E4800B010204081020408090033EE47EA4
:1001BA00019360BCA3FF543F30E509541FFEE4934A
:1001CA00A360010ECF54C025E060A840B8E493A311
:1001DA00FAE493A3F8E493A3C8C582C8CAC583CA3C
:1001EA00F0A3C8C582C8CAC583CADFE9DEE780BEF4
:01036000009C
:00000001FF
