:10093A0020200020202D20202D20200020203A20B9
:05094A00203A2020000E
:1005B50012049CE518FB3395E0FA750C027D017F6A
:1005C500011208DAE519FB3395E0FA750C027D0492
:1005D5007F011208DAE51AFB3395E0FA750C027D06
:1005E500077F011208DAE51BFB3395E0FA750C026B
:1005F5007D017F021208DAE51CFB3395E0FA750CE4
:10060500027D047F021208DAE51DFB3395E0FA75D9
:090615000C027D077F020208DAE5
:10000E00E524B4020B0521E52175F0068485F02167
:10001E00E524640360030200E874182521F806D372
:10002E00E518648094E34003E4F518D3E519648081
:10003E00948C4003751901E51964016023E5196478
:10004E0003601DE51964056017E51964076011E585
:10005E00196408600BE519640A6005E519B40C0B08
:10006E00D3E51A6480949F404D8048E5196404607E
:10007E0011E5196406600BE51964096005E519B40C
:10008E000B0BD3E51A6480949E402B8026E519B4A1
:10009E000224E51875F0041203E6AFF0EF700BD3EF
:1000AE00E51A6480949D400E8009D3E51A6480940D
:1000BE009C4003751A01D3E51B648094974003E4BA
:1000CE00F51BD3E51C648094BB4003E4F51CD3E51B
:1000DE001D648094BB4003E4F51DE52464046003B5
:1000EE000201E374182521F816C3E5186480948084
:1000FE005003751863C3E519648094815003751914
:10010E000CE51964016023E5196403601DE51964AB
:10011E00056017E51964076011E5196408600BE5C1
:10012E0019640A6005E519B40C17C3E51A648094C6
:10013E00815003751A1FD3E51A6480949F40728014
:10014E006DE51964046011E5196406600BE5196428
:10015E00096005E519B40B17C3E51A648094815044
:10016E0003751A1ED3E51A6480949E4044803FE5C1
:10017E00196402703CE51875F0041203E6AFF0EF57
:10018E007017C3E51A648094815003751A1DD3E568
:10019E001A6480949D401A8015C3E51A6480948178
:1001AE005003751A1CD3E51A6480949C4003751A8B
:1001BE0001C3E51B648094805003751B17C3E51CB7
:1001CE00648094805003751C3BC3E51D648094804D
:1001DE005003751D3BE5217014E523B4010F7BFF21
:1001EE007A09793A7D017F011208998011E518FB91
:1001FE003395E0FA750C027D017F011208DAE521D4
:10020E00B40114E523B4010F7BFF7A09793A7D041A
:10021E007F011208998011E519FB3395E0FA750CF0
:10022E00027D047F011208DAE521B40214E523B43D
:10023E00010F7BFF7A09793A7D077F0112089980B9
:10024E0011E51AFB3395E0FA750C027D077F01125A
:10025E0008DAE521B40314E523B4010F7BFF7A0914
:10026E00793A7D017F021208998011E51BFB3395C7
:10027E00E0FA750C027D017F021208DAE521B40462
:10028E0014E523B4010F7BFF7A09793A7D047F02CE
:10029E001208998011E51CFB3395E0FA750C027D6E
:1002AE00047F021208DAE521B40514E523B4010F28
:1002BE007BFF7A09793A7D077F021208998011E552
:1002CE001DFB3395E0FA750C027D077F021208DAEA
:1002DE00E521FB7A00750C027D0A7F021208DAE531
:0E02EE0023FB7A00750C027D0D7F020208DAF8
:1006DC0012094F1200031208F77BFF7A09793D7D4E
:1006EC00017F011208997BFF7A0979467D017F020F
:1006FC001208991202FC12061E8F24E524B401166E
:10070C00E5227007752201F521800BE522B4010664
:10071C00E4F5221202FCE5221460080470D81205DC
:08072C00B580D312000E80CE4F
:03000B000207BC2D
:0907BC00C0E0C0D075D000C007F8
:1007C500758A66758CFC0520E5207002051FC394AB
:1007D500F4E51F94014012751F00752000E5237094
:0907E500047F0180027F008F23D4
:0707EE00D007D0D0D0E032AB
:06096300C2A58F80D2A79F
:080969007F027EEFDEFEDFFCE1
:010971002263
:0A097200C2A6120963C2A7020969B8
:1008BC00CFCDCFCECCCE1204477C007D0A1204479C
:0408CC00ED2430FFE8
:0A08D000D2A6120963C2A70209694B
:10090E00AE07BE0104ED148006BE0209ED243F447D
:06091E0080FF12097222A5
:10094F007F381209727F0C1209727F061209727FAB
:04095F000102097216
:0A097C00AC0312090EAF040208D00C
:060899008B088A09890AA0
:10089F0012090EE4FDAB08AA09A90A8D827583001F
:0C08AF00120408FF60061208D00D80E95A
:0108BB00221A
:0C0866007F0AEA24FFFDE434FFFC7E0062
:080872008E0D8F0E8C0F8D100E
:10087A007F017E00E4FBEBC39510E50F6480F874FA
:0E088A008098500AAC0DAD0E1204350B80E8BC
:01089800223D
:0408DA008A0A8B0BF0
:1008DE0012090EAA0CEAD39400400D120866AC0A57
:0808EE00AD0B1208BC1A80EDED
:0108F60022DF
:1007820012090EC3EA64809480400B7F2B1208D0BA
:100792008A168B17800E7F2D1208D0C3E49BF517A3
:1007A200E49AF516AA15EAD39400400D120866AC35
:0907B20016AD171208BC1A80ED07
:0107BB00221B
:0407F5008A278B289C
:1007F90012090EAA29EAD3940040297F1012086829
:10080900AC27AD28CFCDCFCECCCE120447EF540FB5
:10081900FEC3940AEE5004243080022437FF1208E4
:04082900D01A80D190
:01082D0022A8
:04082E008A2C8B2D58
:1008320012090EAA2EEAD394004028EA24FFFDE40E
:1008420034FFFC7F027E00120872AC2CAD2DCFCD9E
:10085200CFCECCCE120447EF54012430FF1208D081
:030862001A80D227
:010865002270
:0909860007181707100C3B370796
:05000300C2B5C2B622E7
:06067F0025F0FDEC3EFC3D
:060685008C088D09AB0793
:10068B00D2B5E4FD74017E00A805088005C333CE06
:10069B0033CED8F9FFEBF582EF558224FF92B4D21B
:1006AB00B6C2B60DBD08DDE4FD74017E00A80508D9
:1006BB008005C333CE33CED8F9FFE5085EFEE509DE
:1006CB005F4E24FF92B4D2B6C2B60DBD08DBC2B5E5
:0106DB0022FC
:02073400AD070F
:10073600E4F9430501D2B5FB74017E00A8030880E5
:1007460005C333CE33CED8F9FFEDF582EF558224BB
:10075600FF92B4C2B6D2B60BBB08DDE4FBD2B6C27A
:10076600B630B40D7401A803088002C333D8FC4226
:0B077600010BBB08E8C2B5C2B4AF0124
:010781002255
:1002FC00E4FDFC7F8E120685E51875F00A8475F016
:10030C0010A4FFAEF0E51875F00A84EF7F8C12068E
:10031C007FE51975F00A8475F010A4FFAEF0E519AD
:10032C0075F00A847C00EF7F8812067FE51A75F061
:10033C000A8475F010A4FFAEF0E51A75F00A847CFF
:10034C0000EF25F0FDEC3EFC7F86120685E51B7563
:10035C00F00A8475F010A4FFAEF0E51B75F00A846A
:10036C007C00EF25F0FDEC3EFC7F84120685E51C3D
:10037C0075F00A8475F010A4FFAEF0E51C75F00A58
:10038C00847C00EF25F0FDEC3EFC7F82120685E5B7
:10039C001D75F00A8475F010A4FFAEF0E51D75F024
:1003AC000A847C00EF25F0FDEC3EFC7F8012068574
:1003BC00E51E75F00A8475F010A4FFAEF0E51E750D
:1003CC00F00A847C00EF25F0FDEC3EFC7F8A1206DF
:0A03DC00857D807C007F8E0206857F
:10049C007F8C120734EFC4540F75F00AA4FEEF548E
:1004AC000F2EF5187F88120734EFC4540F75F00A1D
:1004BC00A4FEEF540F2EF5197F86120734EFC454A7
:1004CC000F75F00AA4FEEF540F2EF51A7F84120755
:1004DC0034EFC4540F75F00AA4FEEF540F2EF51B25
:1004EC007F82120734EFC4540F75F00AA4FEEF5448
:1004FC000F2EF51C7F80120734EFC4540F75F00AD1
:10050C00A4FEEF540F2EF51D7F8A120734EFC4544E
:0C051C000F75F00AA4FEEF540F2EF51E20
:0105280022B0
:10092400EF1FAC0670011E4C600B007D027CC7DC1F
:05093400FEDDFC80EB7C
:01093900229B
:10061E00E4F50820B1137F14FE12092430B1FD7FDA
:10062E00147E0012092475080120B0147F147E0078
:10063E0012092430B0FD7F147E00120924750802C1
:10064E0020B2147F147E0012092430B2FD7F147E76
:10065E000012092475080320B3147F147E001209BA
:10066E002430B3FD7F147E00120924750804AF08F0
:01067E002259
:1008F7005389F0438901C28DD28C758A66758CFC49
:07090700D2A9D2AFC2B92250
:03000000020529CD
:0C052900787FE4F6D8FD75812E02057085
:1003E600C2D530F707B2D563F0FF05F030E70CB29F
:1003F600D5F4048463F0FF05F080018430D502F45F
:020406000422CE
:10040800BB010CE58229F582E5833AF583E02250A9
:1004180006E92582F8E622BBFE06E92582F8E222F3
:0D042800E58229F582E5833AF583E493220D
:10043500EF8DF0A4A8F0CF8CF0A428CE8DF0A42EDB
:02044500FE2295
:10044700BC000BBE0029EF8DF084FFADF022E4CC99
:10045700F875F008EF2FFFEE33FEEC33FCEE9DEC62
:10046700984005FCEE9DFE0FD5F0E9E4CEFD22EDA8
:10047700F8F5F0EE8420D21CFEADF075F008EF2FF2
:10048700FFED33FD4007985006D5F0F222C398FDE3
:050497000FD5F0EA2280
:100535000206DCE493A3F8E493A34003F68001F2FA
:1005450008DFF48029E493A3F85407240CC8C333C7
:10055500C4540F4420C8834004F456800146F6DF96
:10056500E4800B0102040810204080900986E47E97
:10057500019360BCA3FF543F30E509541FFEE4938B
:10058500A360010ECF54C025E060A840B8E493A352
:10059500FAE493A3F8E493A3C8C582C8CAC583CA7D
:1005A500F0A3C8C582C8CAC583CADFE9DEE780BE35
:01098F000067
:00000001FF
