:100C370050617373776F72643A004F4B20004552CF
:020C4700520059
:10098900120C237BFF7A0C79377D017F01120B99B9
:100999001208008F1CE51C60F7D3940A5033C3E595
:1009A900199404E51894005028AE1AAF1B7C007DF9
:1009B9000A120A548E1A8F1BE51C75F00A84E5F099
:1009C900251BF51BE4351AF51A0519E519700205F9
:1009D90018E51C640B7028E51BB4290DE51AB40948
:1009E900087BFF7A0C794180067BFF7A0C79457D7B
:1009F9000E7F01120B99E4F51AF51BF518F519E5A7
:100A09001CB40C09E4F51AF51BF518F519750C0455
:0E0A1900AB1BAA1A7D017F02120BDA020999AB
:100BF700EF1FAC0670011E4C600B007D027CC7DC4A
:050C0700FEDDFC80EBA6
:010C0C0022C5
:060C4900C2A58F80D2A7B6
:080C4F007F027EEFDEFEDFFCF8
:010C5700227A
:0A0C6400C2A6120C49C2A7020C4FF1
:100BBC00CFCDCFCECCCE120A667C007D0A120A664F
:040BCC00ED2430FFE5
:0A0BD000D2A6120C49C2A7020C4F76
:100C0D00AE07BE0104ED148006BE0209ED243F447B
:060C1D0080FF120C6422AE
:100C23007F38120C647F0C120C647F06120C647FF5
:040C330001020C644A
:0A0C6E00AC03120C0DAF04020BD012
:060B99008B088A09890A9D
:100B9F00120C0DE4FDAB08AA09A90A8D827583001A
:0C0BAF00120A27FF6006120BD00D80E92F
:010BBB002217
:0C0B66007F0AEA24FFFDE434FFFC7E005F
:080B72008E0D8F0E8C0F8D100B
:100B7A007F017E00E4FBEBC39510E50F6480F874F7
:0E0B8A008098500AAC0DAD0E120A540B80E894
:010B9800223A
:040BDA008A0A8B0BED
:100BDE00120C0DAA0CEAD39400400D120B66AC0A4F
:080BEE00AD0B120BBC1A80EDE7
:010BF60022DC
:100ABB00120C0DC3EA64809480400B7F2B120BD079
:100ACB008A168B17800E7F2D120BD0C3E49BF51764
:100ADB00E49AF516AA15EAD39400400D120B66ACF6
:090AEB0016AD17120BBC1A80EDC8
:010AF40022DF
:040AF5008A1F8B20A9
:100AF900120C0DAA21EAD3940040297F10120B6829
:100B0900AC1FAD20CFCDCFCECCCE120A66EF540F9D
:100B1900FEC3940AEE5004243080022437FF120BDE
:040B2900D01A80D18D
:010B2D0022A5
:040B2E008A248B2565
:100B3200120C0DAA26EAD394004028EA24FFFDE411
:100B420034FFFC7F027E00120B72AC24AD25CFCDA8
:100B5200CFCECCCE120A66EF54012430FF120BD056
:030B62001A80D224
:010B6500226D
:10080000E4F5087590FFC2932097137F14FE120B36
:10081000F73097FD7F147E00120BF77508012096C4
:10082000147F147E00120BF73096FD7F147E0012A9
:100830000BF77508052095147F147E00120BF73016
:1008400095FD7F147E00120BF77508092094147F24
:10085000147E00120BF73094FD7F147E00120BF70C
:1008600075080D7590FFC2922097147F147E0012B8
:100870000BF73097FD7F147E00120BF775080220EE
:1008800096147F147E00120BF73096FD7F147E00C5
:10089000120BF77508062095147F147E00120BF7D3
:1008A0003095FD7F147E00120BF775080A20941412
:1008B0007F147E00120BF73094FD7F147E00120B24
:1008C000F775080E7590FFC2912097147F147E0073
:1008D000120BF73097FD7F147E00120BF77508039B
:1008E0002096147F147E00120BF73096FD7F147E45
:1008F00000120BF77508072095147F147E00120B69
:10090000F73095FD7F147E00120BF775080B2094CD
:10091000147F147E00120BF73094FD7F147E0012BA
:100920000BF775080F7590FFC2902097147F147E07
:1009300000120BF73097FD7F147E00120BF775083D
:10094000042096147F147E00120BF73096FD7F145E
:100950007E00120BF77508082095147F147E001294
:100960000BF73095FD7F147E00120BF775080C20F5
:1009700094147F147E00120BF73094FD7F147E00D8
:08098000120BF7750810AF0817
:01098800224C
:03000000020C5897
:0C0C5800787FE4F6D8FD7581260209893A
:100A2700BB010CE58229F582E5833AF583E0225084
:100A370006E92582F8E622BBFE06E92582F8E222CE
:0D0A4700E58229F582E5833AF583E49322E8
:100A5400EF8DF0A4A8F0CF8CF0A428CE8DF0A42EB6
:020A6400FE2270
:100A6600BC000BBE0029EF8DF084FFADF022E4CC74
:100A7600F875F008EF2FFFEE33FEEC33FCEE9DEC3D
:100A8600984005FCEE9DFE0FD5F0E9E4CEFD22ED83
:100A9600F8F5F0EE8420D21CFEADF075F008EF2FCD
:100AA600FFED33FD4007985006D5F0F222C398FDBE
:050AB6000FD5F0EA225B
:00000001FF
