:05088C0012084780FE88
:03002300020800D0
:10080000C0E0C0F0C083C082C0D075D000C000C0BE
:1008100001C002C003C004C005C006C00730980C68
:10082000E599F4F5A0AF99120884C298D007D006D4
:10083000D005D004D003D002D001D000D0D0D082D7
:07084000D083D0F0D0E032BC
:10086200EF1FAC0670011E4C600B007D027CC7DCE2
:05087200FEDDFC80EB3F
:01087700225E
:1008470075985043878053890F438920D28E758BC3
:0B085700F4758DF4C2ABD2AFD2AC221E
:080884008F993099FDC2992201
:030000000208787B
:0C087800787FE4F6D8FD75810802088C3A
:00000001FF
