:10014D00000400040004160218021906180219040E
:10015D001D04180C110211021606140216041904BE
:03016D001404FF78
:10009A00204A0A0000F88CF8F3F95BF9B8FA15FA65
:1000AA0067FAB9FB04FB4BFB90FBCFFC10FC44FC4A
:1000BA0079FCACFCDCFD09FD34FD5CFD82FDA6FD8E
:1000CA00C8FDE8FE06FE22FE3DFE56FE6EFE85FED9
:0D00DA009AFEAEFEC1FED3FEE4FEF4FF036D
:10011C00120170E50890014D93FFF460208F0905E2
:10012C0008E5089375F03EA4FFAEF01201870508B0
:10013C00C28C7F057E00120187D28C80D6C28C8047
:01014C00FEB4
:03000B000200E808
:1000E800C0E0C0D075D000C000C006E50925E024F6
:1000F8000AF8E6FE08E64E6012E50925E0240AF84B
:10010800E6FE08E6F58AEEF58CB2A5D006D000D05A
:04011800D0D0E03231
:10018700EF1FAC0670011E4C600B007D027CC7DCC4
:05019700FEDDFC80EB21
:01019C002240
:100170005389F0438901C28DD28C758A66758CFCD7
:07018000D2A9D2AFC2B922DF
:0300000002000EED
:0C000E00787FE4F6D8FD758153020055A0
:10001A0002011CE493A3F8E493A34003F68001F2DF
:10002A0008DFF48029E493A3F85407240CC8C333E7
:10003A00C4540F4420C8834004F456800146F6DFB6
:10004A00E4800B010204081020408090009AE47EAC
:10005A00019360BCA3FF543F30E509541FFEE493AB
:10006A00A360010ECF54C025E060A840B8E493A372
:10007A00FAE493A3F8E493A3C8C582C8CAC583CA9D
:10008A00F0A3C8C582C8CAC583CADFE9DEE780BE55
:0100E7000018
:00000001FF
