:1002700048656C6C6F0048656C6C6F5F576F726C93
:06028000642E65786500A4
:1000970012029C7B417D017F011202E77BFF7A02FE
:1000A70079707D037F0112020D750C027B427A0085
:1000B7007D097F01120230750C027BA87AFF7D0C47
:1000C7007F01120159750C027BA57A007D017F0221
:1000D700120115750C087BA57A007D047F021201B9
:1000E700987BDF7D0D7F021202E77B437D0E7F0247
:1000F7001202E77BFF7A0279767D107F0112020DEB
:0E0107007F181202DD7FF47E0112028680F264
:0602C100C2A58F80D2A748
:0902C700007F027EC7DEFEDFFCB1
:0102D000220B
:0A02DD00C2A61202C1C2A70202C7A6
:10025200CFCDCFCECCCE1200427C007D0A1200421E
:04026200ED2430FF58
:0A026600D2A61202C1C2A70202C70D
:10029C007F381202DD7F0C1202DD7F061202DD7F39
:0402AC00010202DD6C
:1002B000EDBF010514448080031444C0FF1202DD29
:0102C000221B
:0A02E700AC031202B0AF040202667D
:06020D008B088A09890A32
:100213001202B0E4FDAB08AA09A90A8D8275830016
:0C022300120003FF60061202660D80E965
:01022F0022AC
:0B01D4007F0A24FFFDE434FFFC7E00E6
:1001DF008E108F11ED4C7004FE7F0122ED64014CE7
:1001EF007005AE10AF1122ED24FFFDEC34FFFCAF14
:0E01FF0011AE101201DFAC10AD111200302253
:040230008A0A8B0BA0
:100234001202B0850C0DE50DD394004010E50D12AB
:0D02440001D4AC0AAD0B120252150D80E979
:01025100228A
:100159001202B0C3EA64809480400B7F2B120266BE
:100169008A0E8B0F800E7F2D120266C3E49BF50F5A
:10017900E49AF50E850C0DE50DD394004010E50DBC
:0E0189001201D4AC0EAD0F120252150D80E91A
:010197002245
:040115008A0A8B0BBC
:100119001202B0850C0DE50DD394004032E50D7F38
:10012900101201D6AC0AAD0BCFCDCFCECCCE12007A
:1001390042EF540FFEC3940AEE5004243080087530
:0F014900F00A84E5F02441FF120266150D80C70D
:010158002284
:040198008A0A8B0B39
:10019C001202B0850C0DE50DD39400402AE50D2418
:1001AC00FFFDE434FFFC7F027E001201DFAC0AADE0
:1001BC000BCFCDCFCECCCE120042EF54012430FF6A
:0701CC00120266150D80CF41
:0101D3002209
:10028600EF1FAC0670011E4C600B007D027CC7DCC4
:05029600FEDDFC80EB21
:01029B002240
:030000000202D128
:0C02D100787FE4F6D8FD758111020097DB
:10000300BB010CE58229F582E5833AF583E02250B2
:1000130006E92582F8E622BBFE06E92582F8E222FC
:0D002300E58229F582E5833AF583E4932216
:10003000EF8DF0A4A8F0CF8CF0A428CE8DF0A42EE4
:02004000FE229E
:10004200BC000BBE0029EF8DF084FFADF022E4CCA2
:10005200F875F008EF2FFFEE33FEEC33FCEE9DEC6B
:10006200984005FCEE9DFE0FD5F0E9E4CEFD22EDB1
:10007200F8F5F0EE8420D21CFEADF075F008EF2FFB
:10008200FFED33FD4007985006D5F0F222C398FDEC
:050092000FD5F0EA2289
:00000001FF
