:10083F000000000000000000FF8080FF0101FF00AA
:10084F009F99999999F900FFA5A5A5FF00FF181881
:10085F00187E7E181818FF0000000000000000002E
:10080000750901E4F50A1208E0E4F508E508250990
:1008100090083F93FD7C00AF0812089C0508E5088E
:10082000C3940840E7050AE50AD3940A40DBE4F5DF
:0F0830000A0509E509D3942840CFE4F50980CAE9
:1008BE00EF1FAC0670011E4C600B007D027CC7DC86
:0508CE00FEDDFC80EBE3
:0108D3002202
:02086F00AD07D3
:10087100E4FB74807E00A803088006CEA2E713CEB5
:1008810013D8F8FFEDF582EF558224FF92B4D2B66A
:0A089100C2B60BBB08DCD2B5C2B53D
:01089B00223A
:0508E000C2B6C2B52202
:10089C00AA07AF0512086FAF027480A80708800280
:1008AC00C313D8FCF4F5807F017E001208BE75805E
:0208BC00FF2219
:030000000208D41F
:0C08D400787FE4F6D8FD75810A02080068
:00000001FF
