:100168001201C7751805E4F51A851A187F0A7E006A
:100178001201DE051AE51AC3946440ED751A64E5A8
:100188001AD3940040E0851A187F0A7E001201DE17
:04019800151A80EBC9
:03000B0002019C53
:10019C00C0E0C0F0C0D0758A9C758CFF0519E519BC
:1001AC0075F0648485F019E519C395185004D2A133
:0B01BC008002C2A1D0D0D0F0D0E03211
:1001DE00EF1FAC0670011E4C600B007D027CC7DC6D
:0501EE00FEDDFC80EBCA
:0101F30022E9
:10010700E4F51B20B1137F14FE1201DE30B1FD7F31
:10011700147E001201DE751B0120B0147F147E00CF
:100127001201DE30B0FD7F147E001201DE751B0266
:1001370020B2147F147E001201DE30B2FD7F147EE0
:10014700001201DE751B0320B3147F147E00120119
:10015700DE30B3FD7F147E001201DE751B04AF1B7A
:010167002275
:1001F40010083F065B4F666D7D077F6F777C395E25
:0202040079710E
:10009A00EF14B4080050549000AF75F003A4C58360
:1000AA0025F0C583730200C70200CB0200CF02000D
:1000BA00D30200D70200DF0200E70200EFD2A480D9
:1000CA000ED2A48012D2A48016D2A4801AC2A4D2BC
:1000DA00A3D2A28016C2A4D2A3C2A2800EC2A4C274
:1000EA00A3D2A28006C2A4C2A3C2A274082DF8E6B3
:0D00FA00F5807F017E001201DEE4F580221A
:1001C7005389F0438901C28DD28C758A9C758CFF47
:0701D700D2A9D2AFC2B92288
:0300000002000EED
:0C000E00787FE4F6D8FD75811B020055D8
:10001A00020168E493A3F8E493A34003F68001F293
:10002A0008DFF48029E493A3F85407240CC8C333E7
:10003A00C4540F4420C8834004F456800146F6DFB6
:10004A00E4800B01020408102040809001F4E47E51
:10005A00019360BCA3FF543F30E509541FFEE493AB
:10006A00A360010ECF54C025E060A840B8E493A372
:10007A00FAE493A3F8E493A3C8C582C8CAC583CA9D
:10008A00F0A3C8C582C8CAC583CADFE9DEE780BE55
:0102060000F7
:00000001FF
