:100168001201D37518051201078F19E5196401707A
:1001780023051B531B03E51B7002F518E51BB4018F
:1001880003751832E51BB4020375184BE51BB4035D
:1001980003751864E51BFD7C007F0112009A80C678
:03000B000201A847
:1001A800C0E0C0F0C0D0758A9C758CFF051AE51AAE
:1001B80075F0648485F01AE51AC395185004D29036
:0B01C8008002C290D0D0D0F0D0E03216
:1001EA00EF1FAC0670011E4C600B007D027CC7DC61
:0501FA00FEDDFC80EBBE
:0101FF0022DD
:10010700E4F51C20B1137F14FE1201EA30B1FD7F24
:10011700147E001201EA751C0120B0147F147E00C2
:100127001201EA30B0FD7F147E001201EA751C024D
:1001370020B2147F147E001201EA30B2FD7F147ED4
:10014700001201EA751C0320B3147F147E0012010C
:10015700EA30B3FD7F147E001201EA751C04AF1C60
:010167002275
:1002000010083F065B4F666D7D077F6F777C395E18
:02021000797102
:10009A00EF14B4080050549000AF75F003A4C58360
:1000AA0025F0C583730200C70200CB0200CF02000D
:1000BA00D30200D70200DF0200E70200EFD2A480D9
:1000CA000ED2A48012D2A48016D2A4801AC2A4D2BC
:1000DA00A3D2A28016C2A4D2A3C2A2800EC2A4C274
:1000EA00A3D2A28006C2A4C2A3C2A274082DF8E6B3
:0D00FA00F5807F017E001201EAE4F580220E
:1001D3005389F0438901C28DD28C758A9C758CFF3B
:0701E300D2A9D2AFC2B9227C
:0300000002000EED
:0C000E00787FE4F6D8FD75811C020055D7
:10001A00020168E493A3F8E493A34003F68001F293
:10002A0008DFF48029E493A3F85407240CC8C333E7
:10003A00C4540F4420C8834004F456800146F6DFB6
:10004A00E4800B0102040810204080900200E47E44
:10005A00019360BCA3FF543F30E509541FFEE493AB
:10006A00A360010ECF54C025E060A840B8E493A372
:10007A00FAE493A3F8E493A3C8C582C8CAC583CA9D
:10008A00F0A3C8C582C8CAC583CADFE9DEE780BE55
:0102120000EB
:00000001FF
