:0A0BDC004D61747269784B65790071
:100AFB00120BAD7BFF7A0B79DC7D017F01120B238F
:100B0B001208008F22E52260F7FB7A00750C027D3C
:080B1B00017F02120B6480E867
:100B8100EF1FAC0670011E4C600B007D027CC7DCC0
:050B9100FEDDFC80EB1D
:010B9600223C
:060BC100C2A58F80D2A73F
:080BC7007F027EEFDEFEDFFC81
:010BCF002203
:0A0BE600C2A6120BC1C2A7020BC782
:100B4600CFCDCFCECCCE1209C87C007D0A1209C803
:040B5600ED2430FF5B
:0A0B5A00D2A6120BC1C2A7020BC7FE
:100B9700AE07BE0104ED148006BE0209ED243F44F2
:060BA70080FF120BE622A4
:100BAD007F38120BE67F0C120BE67F06120BE67FE9
:040BBD0001020BE640
:0A0BF000AC03120B97AF04020B5A7E
:060B23008B088A09890A13
:100B2900120B97E4FDAB08AA09A90A8D8275830007
:0C0B3900120989FF6006120B5A0D80E9BA
:010B4500228D
:0C0AC8007F0AEA24FFFDE434FFFC7E00FE
:080AD4008E0D8F0E8C0F8D10AA
:100ADC007F017E00E4FBEBC39510E50F6480F87496
:0E0AEC008098500AAC0DAD0E1209B60B80E8D2
:010AFA0022D9
:040B64008A0A8B0B63
:100B6800120B97AA0CEAD39400400D120AC8AC0ADB
:080B7800AD0B120B461A80EDD3
:010B80002252
:100A1D00120B97C3EA64809480400B7F2B120B5A04
:100A2D008A168B17800E7F2D120B5AC3E49BF51778
:100A3D00E49AF516AA15EAD39400400D120AC8AC33
:090A4D0016AD17120B461A80EDDC
:010A5600227D
:040A57008A1A8B1B51
:100A5B00120B97AA1CEAD3940040297F10120ACAE2
:100A6B00AC1AAD1BCFCDCFCECCCE1209C8EF540FE5
:100A7B00FEC3940AEE5004243080022437FF120B7D
:040A8B005A1A80D1A2
:010A8F002244
:040A90008A1F8B200E
:100A9400120B97AA21EAD394004028EA24FFFDE42C
:100AA40034FFFC7F027E00120AD4AC1FAD20CFCDF0
:100AB400CFCECCCE1209C8EF54012430FF120B5A0A
:030AC4001A80D2C3
:010AC700220C
:10080000E4F5087590FFC2932097137F14FE120B36
:10081000813097FD7F147E00120B817508012096B0
:10082000147F147E00120B813096FD7F147E00121F
:100830000B817508052095147F147E00120B813002
:1008400095FD7F147E00120B817508092094147F9A
:10085000147E00120B813094FD7F147E00120B81F8
:1008600075080D7590FFC2922097147F147E0012B8
:100870000B813097FD7F147E00120B8175080220DA
:1008800096147F147E00120B813096FD7F147E003B
:10089000120B817508062095147F147E00120B81BF
:1008A0003095FD7F147E00120B8175080A20941488
:1008B0007F147E00120B813094FD7F147E00120B9A
:1008C0008175080E7590FFC2912097147F147E00E9
:1008D000120B813097FD7F147E00120B8175080387
:1008E0002096147F147E00120B813096FD7F147EBB
:1008F00000120B817508072095147F147E00120BDF
:10090000813095FD7F147E00120B8175080B2094B9
:10091000147F147E00120B813094FD7F147E001230
:100920000B8175080F7590FFC2902097147F147E7D
:1009300000120B813097FD7F147E00120B81750829
:10094000042096147F147E00120B813096FD7F14D4
:100950007E00120B817508082095147F147E00120A
:100960000B813095FD7F147E00120B8175080C20E1
:1009700094147F147E00120B813094FD7F147E004E
:08098000120B81750810AF088D
:01098800224C
:03000000020BD020
:0C0BD000787FE4F6D8FD758122020AFB54
:10098900BB010CE58229F582E5833AF583E0225023
:1009990006E92582F8E622BBFE06E92582F8E2226D
:0D09A900E58229F582E5833AF583E4932287
:1009B600EF8DF0A4A8F0CF8CF0A428CE8DF0A42E55
:0209C600FE220F
:1009C800BC000BBE0029EF8DF084FFADF022E4CC13
:1009D800F875F008EF2FFFEE33FEEC33FCEE9DECDC
:1009E800984005FCEE9DFE0FD5F0E9E4CEFD22ED22
:1009F800F8F5F0EE8420D21CFEADF075F008EF2F6C
:100A0800FFED33FD4007985006D5F0F222C398FD5C
:050A18000FD5F0EA22F9
:00000001FF
