:0B03230041444A204E54432052470042
:100105001202E27BFF7A0379237D017F01120269E6
:100115007F9C1200978E248F25751403AB25AA2486
:100125007D017F0212028C7F0A7E001202CC7FDCE9
:100135001200978E248F25751403AB25AA247D05FF
:100145007F0212028C7F0A7E001202CC7FAC120065
:10015500978E248F25751403AB25AA247D097F026C
:0C01650012028C7F0A7E001202CC80A4E3
:1002CC00EF1FAC0670011E4C600B007D027CC7DC7E
:0502DC00FEDDFC80EBDB
:0102E10022FA
:06030700C2A58F80D2A701
:09030D00007F027EC7DEFEDFFC6A
:0103160022C4
:0A032E00C2A6120307C2A702030DC6
:1002AE00CFCDCFCECCCE1200427C007D0A120042C2
:0402BE00ED2430FFFC
:0A02C200D2A6120307C2A702030D23
:1002E2007F3812032E7F0C12032E7F0612032E7FFD
:0402F2000102032ED4
:1002F600EDBF010514448080031444C0FF12032E91
:0103060022D4
:0A033800AC031202F6AF040202C289
:060269008B108A118912BE
:10026F001202F6E4FDAB10AA11A9128D827583005C
:0C027F00120003FF60061202C20D80E9AD
:01028B002250
:0B0230007F0A24FFFDE434FFFC7E0089
:10023B008E168F17ED4C7004FE7F0122ED64014C7E
:10024B007005AE16AF1722ED24FFFDEC34FFFCAFAB
:0E025B0017AE1612023BAC16AD171200302281
:04028C008A128B1334
:100290001202F6851415E515D394004010E51512E9
:0D02A0000230AC12AD131202AE151580E94C
:0102AD00222E
:1001B5001202F6C3EA64809480400B7F2B1202C2C0
:1001C5008A0E8B0F800E7F2D1202C2C3E49BF50FA2
:1001D500E49AF50E850C0DE50DD394004010E50D60
:0E01E500120230AC0EAD0F1202AE150D80E905
:0101F30022E9
:040171008A1A8B1B40
:100175001202F6851C1DE51DD394004032E51D7F56
:1001850010120232AC1AAD1BCFCDCFCECCCE1200A1
:1001950042EF540FFEC3940AEE50042430800875D4
:0F01A500F00A84E5F02441FF1202C2151D80C745
:0101B4002228
:0401F4008A208B21B1
:1001F8001202F6852223E523D39400402AE523241E
:10020800FFFDE434FFFC7F027E0012023BAC20AD10
:1002180021CFCDCFCECCCE120042EF54012430FFF7
:070228001202C2152380CF72
:01022F0022AC
:02009700AD07B3
:10009900E4F510F511C2B6C2B5FB74807E00A80361
:1000A900088006CEA2E713CE13D8F8FFEDF582EF4C
:1000B900558224FF92B4D2B6C2B60BBB08DCE4FB6E
:1000C900D2B6C2B630B714E47E80A803088005CE44
:1000D900C313CE13D8F94211EE42100BBB10E1D273
:1000E900B5ED30E306E510FF7E0022E510C4F854B3
:0B00F900F0C868FEE511C4540F48FF7A
:0101040022D8
:03000000020317E1
:0C031700787FE4F6D8FD75812502010511
:10000300BB010CE58229F582E5833AF583E02250B2
:1000130006E92582F8E622BBFE06E92582F8E222FC
:0D002300E58229F582E5833AF583E4932216
:10003000EF8DF0A4A8F0CF8CF0A428CE8DF0A42EE4
:02004000FE229E
:10004200BC000BBE0029EF8DF084FFADF022E4CCA2
:10005200F875F008EF2FFFEE33FEEC33FCEE9DEC6B
:10006200984005FCEE9DFE0FD5F0E9E4CEFD22EDB1
:10007200F8F5F0EE8420D21CFEADF075F008EF2FFB
:10008200FFED33FD4007985006D5F0F222C398FDEC
:050092000FD5F0EA2289
:00000001FF
