:090AF900436C6F636B3A003A0094
:10089400120AB6120A737BFF7A0A79F97D017F0185
:1008A400120A157BFF7A0B79007D037F02120A1569
:1008B4007BFF7A0B79007D067F02120A15E51BFB8C
:1008C4007A00750C027D017F02120A56E51CFB7A40
:1008D40000750C027D047F02120A56E51AFB7A00A9
:0C08E400750C027D077F02120A5680D1BD
:03000B000208F0F8
:0408F000C0E0C0D0D4
:1008F400758A66758CFC0519E51970020518C39490
:10090400E8E51894034027751800751900051AE5E1
:100914001A943C4019751A00051CE51C943C400EC1
:0E092400751C00051BE51B94184003751B0095
:05093200D0D0D0E0323E
:060ACA00C2A58F80D2A737
:080AD0007F027EEFDEFEDFFC79
:010AD80022FB
:0A0AE500C2A6120ACAC2A7020AD074
:100A3800CFCDCFCECCCE12083F7C007D0A12083F26
:040A4800ED2430FF6A
:0A0A4C00D2A6120ACAC2A7020AD0FD
:100A8A00AE07BE0104ED148006BE0209ED243F4400
:060A9A0080FF120AE522B4
:100AB6007F38120AE57F0C120AE57F06120AE57FE7
:040AC60001020AE53A
:0A0AEF00AC03120A8AAF04020A4C9D
:060A15008B088A09890A22
:100A1B00120A8AE4FDAB08AA09A90A8D8275830024
:0C0A2B00120800FF6006120A4C0D80E962
:010A3700229C
:0C09E2007F0AEA24FFFDE434FFFC7E00E5
:0809EE008E0D8F0E8C0F8D1091
:1009F6007F017E00E4FBEBC39510E50F6480F8747D
:0E0A06008098500AAC0DAD0E12082D0B80E842
:010A140022BF
:040A56008A0A8B0B72
:100A5A00120A8AAA0CEAD39400400D1209E2AC0ADF
:080A6A00AD0B120A381A80EDF1
:010A72002261
:10093700120A8AC3EA64809480400B7F2B120A4C08
:100947008A168B17800E7F2D120A4CC3E49BF5176E
:10095700E49AF516AA15EAD39400400D1209E2AC01
:0909670016AD17120A381A80EDD2
:010970002264
:040971008A1F8B202E
:10097500120A8AAA21EAD3940040297F101209E4B9
:10098500AC1FAD20CFCDCFCECCCE12083FEF540F4C
:10099500FEC3940AEE5004243080022437FF120A65
:0409A5004C1A80D197
:0109A900222B
:0409AA008A248B25EB
:1009AE00120A8AAA26EAD394004028EA24FFFDE41C
:1009BE0034FFFC7F027E001209EEAC24AD25CFCDB4
:1009CE00CFCECCCE12083FEF54012430FF120A4C8A
:0309DE001A80D2AA
:0109E10022F3
:100A73005389F0438901C28DD28C758A66758CFCCB
:070A8300D2A9D2AFC2B922D3
:100AA000EF1FAC0670011E4C600B007D027CC7DCA2
:050AB000FEDDFC80EBFF
:010AB500221E
:03000000020AD918
:0C0AD900787FE4F6D8FD758126020894B1
:10080000BB010CE58229F582E5833AF583E02250AD
:1008100006E92582F8E622BBFE06E92582F8E222F7
:0D082000E58229F582E5833AF583E4932211
:10082D00EF8DF0A4A8F0CF8CF0A428CE8DF0A42EDF
:02083D00FE2299
:10083F00BC000BBE0029EF8DF084FFADF022E4CC9D
:10084F00F875F008EF2FFFEE33FEEC33FCEE9DEC66
:10085F00984005FCEE9DFE0FD5F0E9E4CEFD22EDAC
:10086F00F8F5F0EE8420D21CFEADF075F008EF2FF6
:10087F00FFED33FD4007985006D5F0F222C398FDE7
:05088F000FD5F0EA2284
:00000001FF
