:100263001203DA1203C812038FEF604B1203D78F06
:1002730024E524B41603E4F525E524B40C0375251D
:1002830001E524B41803752502E524B45E0375253E
:1002930003E5257004FF1203DDE525B401057F3274
:1002A3001203DDE525B402057F4B1203DDE525B41A
:1002B30003057F641203DDE525FD7C007F01120148
:0302C300F680A31F
:10036900EF1FAC0670011E4C600B007D027CC7DCE0
:05037900FEDDFC80EB3D
:01037E00225C
:1002C600E4F52820B1137F14FE12036930B1FD7FD7
:1002D600147E0012036975280120B0147F147E0075
:1002E60012036930B0FD7F147E001203697528027F
:1002F60020B2147F147E0012036930B2FD7F147E93
:100306000012036975280320B3147F147E001203BC
:100316006930B3FD7F147E00120369752804AF2887
:0103260022B4
:1000060010083F065B4F666D7D077F6F777C395E14
:020016007971FE
:1001F600EF14B40800505490020B75F003A4C583A5
:1002060025F0C5837302022302022702022B020293
:100216002F02023302023B02024302024BD2A480A7
:100226000ED2A48012D2A48016D2A4801AC2A4D25E
:10023600A3D2A28016C2A4D2A3C2A2800EC2A4C216
:10024600A3D2A28006C2A4C2A3C2A274082DF8E655
:0D025600F5807F017E00120369E4F580222F
:100352005389F0438910C28FD28E758B9C758DFFA5
:07036200D2ABD2AFC2BB22F7
:0B03A900D288C289D2A8D2AFD2B822FD
:0603C80012037F0203A9ED
:0D038F00E51F6006E4F51F7F01227F0022BC
:0D039C00E51D6006E4F51D7F01227F0022B3
:0303D400AF1C2239
:0303D700AF1B2237
:0300030002001EDA
:10001E00C0E0C0F0C083C082C0D075D000C000C0A8
:10002E0001C002C003C004C005C006C007E51870B9
:10003E000CFFFE1203B47F011203CE8049E5186453
:10004E000170491203BF8E198F1AE4FFFE1203B41A
:10005E00D3E51A94A6E519942E4010E51A948EE570
:10006E00199432500675180202014FD3E51A948C7A
:10007E00E51994264010E51A9474E519942A500651
:10008E00751D0102014775180102014FE518640242
:10009E00600302014F1203BF8E198F1AE4FFFE1286
:1000AE0003B4D3E51A9414E5199402402CE51A947E
:1000BE00FCE51994055022E51E131313541F24203A
:1000CE00F8C000E6FFE51E5407FE7401A80608807E
:1000DE0002C333D8FCF45F8034D3E51A9426E519B5
:1000EE0094064030E51A940EE519940A5026E51E42
:1000FE00131313541F2420F8C000E6FFE51E540707
:10010E00FE7401A806088002C333D8FC4FD000F657
:10011E00051E8006751E00751801E51EC39420404D
:10012E0020751E00E521F4B5200FE523F4B5220954
:10013E0085201C85221B751F01E4FF1203CE751846
:10014E0000D007D006D005D004D003D002D001D005
:0C015E0000D0D0D082D083D0F0D0E032AE
:10037F005389F0438901C28DC28CE4F58AF58C2232
:0B03B400AD07AC068C8CAF058F8A22D1
:0903BF00AF8CEFFEAD8AEDFF22C8
:0603CE00EF24FF928C22D7
:0303DA00020352C9
:0303DD008F262246
:03001B00020327B6
:10032700C0E0C0F0C0D0758B9C758DFF0527E52711
:1003370075F0648485F027E527C395265004D2908D
:0B0347008002C290D0D0D0F0D0E03295
:0300000002016A90
:0C016A00787FE4F6D8FD7581280201B111
:10017600020263E493A3F8E493A34003F68001F23A
:1001860008DFF48029E493A3F85407240CC8C3338A
:10019600C4540F4420C8834004F456800146F6DF59
:1001A600E4800B0102040810204080900006E47EE3
:1001B600019360BCA3FF543F30E509541FFEE4934E
:1001C600A360010ECF54C025E060A840B8E493A315
:1001D600FAE493A3F8E493A3C8C582C8CAC583CA40
:1001E600F0A3C8C582C8CAC583CADFE9DEE780BEF8
:0100180000E7
:00000001FF
